:020000040000FA
:1000000002005400000080FBE490020078027901B5
:100010008002F0A3D8FCD9FA7A017B0290008478A0
:100020009279018015E493A3AD82AE838A828B839B
:10003000F0A3AA82AB838D828E83D8E9D9E775823B
:1000400058758321740012006675820375830074ED
:100050000012006675D0007581BF75180075190211
:10006000759F00020008C09FF59FE473D09F22D0C7
:1000700083D082C09FE493C0E0740193C0E0740217
:1000800093F59F22FFFFFFFF52B82F4300008047E8
:1000900066663BC20000C842000000000000FA4251
:1000A0000000C0C0CEC2B6C83A252E3266A1E60D09
:1000B0000A00CAAAB6C83A252E3266A3A50D0A00C0
:1000C0000100044230313233343536373839414259
:1000D0004344454600286E756C6C20706F696E74E1
:1000E0006572290030313233343536373839616240
:1000F00063646566003F3F3F000000807F00008032
:100100003FF9021550B743BA510000204100E7DB28
:100110002E0000A04012006F56230012006F5E20D8
:100120000012006FDD200012006F04210012006F2A
:100130002D1D0012006F541D0012006FE41E0012EE
:10014000006F041F0012006F2D1F0012006F4E1F62
:100150000012006F6D1F0012006FD31F0012006F9E
:1001600040200012006F65230012006FDD22001294
:10017000006FF6220012006F01230012006FC70CFF
:100180000012006FDA110012006F2A230012006FB4
:1001900047220012006F712200C008C3E096F508E4
:1001A00008A3E096420808A3E096420808A3E09658
:1001B0004208A2D265D033E5087001D3D0082208E6
:1001C0000808E630E7111209F91201D7080808C635
:1001D0004480C618181822181818E9799EC608CA4B
:1001E000C608CBC608CCC6C370207996CACBCC70E3
:1001F00019798ECBCC70137986CC700EF9802ACA0F
:1002000033CACB33CBCC33CC331930E7F2CCCBCAA7
:100210003350147004EA30E00DE4CA3ACACB3BCB49
:10022000CC3CCC500209C3E913C6CC182313C6CB6F
:1002300018C6CA18C6F92212027720F01430E72B2C
:1002400074FFFCFBFA747F8022E4FCFBFA7480806C
:100250001AB48008BC00F2BB00EF800F50EBF9E449
:10026000C39AFAE49BFBE49CFCE499C6CC18C6CB89
:1002700018C6CA18C6F922E4C9C608CAC608CBC639
:10028000D3330308CCC63392F0C3947F402E941826
:100290004019C9B90704CACBCC225025C309CA33B7
:1002A000CACB33CBCC33CC33D9F422F4600DC9CCD8
:1002B000C313CB13CBCA13CAD9F6CC22E4FCFBFA86
:1002C0002214FCFBFA22E62618461846184622E7B6
:1002D0002719471947194722181818E608460870C1
:1002E00009E626087005E633F4220822191919E7F1
:1002F0000947097009E727097005E733F422092245
:10030000E6084608C3134608336002E633F422E7E2
:10031000094709C3134709336002E733F422120384
:1003200000602512030F60201202C670030202CF84
:10033000080808E76670101819E766700A1819E7C8
:100340006670041819E76622F422120300601C127A
:10035000030F60171202C670071202CF7001D3227A
:10036000C0D01202CF7006D0D0B322C32233D0D077
:10037000501430E0F6C3E7960809E7960809E796B7
:100380000809E796B32220E0D5E6970809E6970822
:1003900009E6970809E697B322120300601B1203CF
:1003A0000F60161202C670071202CF600CB322C093
:1003B000D01202CF7005D0D022C32233D0D0501338
:1003C00030E0EBC3E7960809E7960809E7960809C5
:1003D000E7962220E0E4E6970809E6970809E69701
:1003E0000809E6972200120300604F12030F601203
:1003F000E7548066F61202D870111202CF703B09E2
:100400000909F4F618F618F618F6221202EC70151F
:100410001202C608080860EAE6447FF618768018DB
:10042000E4F618F6221202C660161202CF7012E429
:10043000F608F608F608E65480F6090909181818AF
:1004400022EAC0E0EBC0E0ECC0E0EDC0E0E687F0FF
:10045000A4FBACF008E687F0A42CFCE435F0FA1815
:1004600009E687F0A42C4B60027401CA35F0FCE465
:1004700033FB09E687F0D2F7A42CCB35F0FC190842
:10048000E687F0A42BCC35F0FBE433FD0819E687B2
:10049000F0D2E7A42C4ACB35F0CD3400FC09E68736
:1004A000F0D2E7A42DCC35F0FDE433FA0918E68745
:1004B000F0D2F7A42CCD35F0CA3400FC08E687F062
:1004C000D2E7D2F7A42ACC35F07A7E20E70B0ACB0C
:1004D00033CBCD33CDCC33CC33CB3350147004ED90
:1004E00030E00ED2F1E4CD3DCDCC3CCC3B5005DA32
:1004F00005C2F1EB547FC63308E63392F0FBE733D5
:1005000009E733C39A502D2B70190C0D4C4D701503
:100510001806E608C333700D20F10AA2F013F6E4C2
:1005200018800B4024E4F630F002768018F618F6B6
:1005300018F68024D33B14501074FFA2F013F61861
:100540007680E418F618F6800FA2F013F618E6335A
:1005500003F618ECF618EDF6D0E0FDD0E0FCD0E0A4
:10056000FBD0E0FA2212030F6046120300603DE95F
:10057000687008F618F618F618F622748067F712F5
:100580000599090909748067F722120300601D129A
:10059000030F7005191919801A1202D8701F120260
:1005A000ECC37003E66733191919400718181822AD
:1005B00008080874FFF618F618F618F6221202EC6E
:1005C00060171202CF702192F01202C670195017F4
:1005D00020F014080808090909E7F61819E7F618C1
:1005E00019E7F61819E7F6221202C660E6E8697004
:1005F0001F0808E62480F608E436F618547FB47F16
:100600000CE654806007F6E418F618F62218182253
:10061000E9C6CC08C6CD08C6CE08C6CFC0E0E8C043
:10062000E0EAC0E0EBC0E009E9F809E7FA09E7FB16
:10063000E6F918E6F8C3EC98ED99EE9AEBC2E7F507
:10064000F0EFC2E795F0500E600CEBCFFBEACEFA6C
:10065000E9CDF9E8CCF8EAA2E7D2E7FAEB33FB13ED
:10066000F5F0EEA2E7D2E7FEEF33FFC5F013A2E705
:1006700030E601B313C5F0C3C0E0C0F07F00C39BF8
:10068000FB605E9418600F401D14601AD0E023F9DF
:10069000D0E0F802076B8AF0E9486003D2F0E4AFDB
:1006A000F0FAF9F8803BEB30E40D89F0EA6003D210
:1006B000F0E4AFF0F9CAF8EB30E30D88F0EF600238
:1006C000D2F0AFF0E4CAC9F8EB54076014FBC3EAF8
:1006D00013FAE913F9E813F8EF135002D2E0FFDB45
:1006E000EDD0E0C0E030E739C3E49FFFF5F0EC98CF
:1006F000FC42F0ED99FD42F0EE9AFE42F0D0E0F9B6
:10070000D0E0F8E5F0607AE923F9EE20E742D8027C
:100710008067C3EF33FFEC33FCED33FDEE33FE8037
:10072000EAEC28FCED39FDEE3AFED0E023F9D0E00A
:10073000F84002801BC3EE13FEED13FDEC13FCEF3B
:10074000135002D2E0FF08B800067F7F74FF802EAE
:10075000EF3350178CF020F00260100CBC000C0D31
:10076000BD00080EBE000408E860DFE933E813FFAF
:10077000EE2313FE4F4D4C8008E95480FFE4FEFD4C
:10078000FCEE33EF33F47004FCFD7E80D0E0FBD050
:10079000E0FAD0E0F8D0E0CFC618CEC618CDC61823
:1007A000CCC6F92212030070041818182212030F85
:1007B000700D74FFF61819F61819F61819F622E7D5
:1007C000548066F61202C6700F1202CF70F014F653
:1007D00008F608F608F680D11202CF700CF608F67B
:1007E00008768008E6447F80EC1202EF700C12025B
:1007F000DB60BFE65480F6E480BB1202DB700519B3
:10080000191980A5E869700C763F18768018F618DB
:10081000F6E8F922E6CDC0E018ECC0E0E633CD33CF
:10082000CDD313F6E719FCE7191933CC33C3947F02
:10083000400ECD9D502408E65480F6E418F6800F53
:10084000F4043D14501408E6447FF6187680E4184A
:10085000F618F6D0E0FCD0E0FD22CCD313CCFD1886
:10086000E4C6CBC0E018E4C6CAC0E00808ED08C67C
:1008700033E613F618E433C675F003C3CA97CA0902
:10088000CB97CB199C40047D08802EBD0003020944
:100890004D16B6FF050606081618C3CA33CACB3371
:1008A000CB33CA27CA09CB37CB193CC37D08803E5E
:1008B000187D0820E75CC633C6CA33CACB33CB33B6
:1008C000DDF1D5F0EB30E77BCA97CA09CB974ACB6D
:1008D000199C406F4B7025E620E0218066187D084A
:1008E000C3CA97CA09CB97CB199CD3C633C6CA33A0
:1008F000CACB33CB3350C9DDE7D5F0E1D3E4C636FC
:10090000C608C636C608C636C608C636C61818187B
:100910008031C3CA97CA09CB97CB199CB34097C6FD
:1009200033C6CA33CACB33CB33DD34D5F02EC6A29F
:10093000E0C640C8CA27CA09CB37194A70BECB3CAB
:10094000B480B90808E63308E633601F181818D0D9
:10095000E0FAD0E0FBD0E0FCD0E0FD22187D08CA30
:1009600027CA09CB37CB193CD3808013F618E4B6DD
:100970007F11F618B6FF0EF618C60470D208087676
:100980008080CAF618F618F680C5E4CFC0E0E4CE41
:10099000C0E0E4CDC0E0E4CCC0E075F020E626F68F
:1009A00008E633F608E633F608E633F6181818ECCE
:1009B00033FCED33FDEE33FEEF33FFC3EC9709ED6F
:1009C0009709EE9709EF97191919400FFFEC97FC5B
:1009D00009ED97FD09EE97FE191906D5F0BFECF762
:1009E00009EDF709EEF709EFF7191919D0E0FCD076
:1009F000E0FDD0E0FED0E0FF22181818E4C396F620
:100A000008E496F608E496F608E496F622601608DE
:100A10000808C6C313C618C613C618C613C618C618
:100A200013C6D5E0EA22E627F60809E637F60809F4
:100A3000E637F60809E637F622E026F608A3E036A0
:100A4000F608A3E036F608A3E036F622E0F608A39F
:100A5000E0F608A3E0F608A3E0F622E6F008A3E635
:100A6000F008A3E6F008A3E6F022E0FAA3E0FBA377
:100A7000E0FCA3E0FD22E0F8A3E0F9A3E0FAA3E0A4
:100A8000FB22E8F0A3E9F0A3EAF0A3EBF022CAC04E
:100A9000E0E6F0A308DAFAD0E0FA22CAC0E0E0A368
:100AA000C582CCC582C583CDC583F0A3C582CCC524
:100AB00082C583CDC583DAE6D0E0CA22C3E498F8C4
:100AC000E499F9120AFD8026C3E49AFAE49BFBE953
:100AD00020E7E9120AFDE498F8E499F922C3E498C2
:100AE000F8E499F9120AFDE498F8E499F9C3E49A54
:100AF000FAE49BFB22EB20E7CFE920E7E0B9001006
:100B0000BB0008E88AF084F8AAF022E4FBC8FA22C5
:100B1000EB70227B10C833C8C933C9335007C39A5E
:100B2000C3DBF280069A50012ADBEAC833F4C8C955
:100B300033F4C9FA2275F008E4C833C8C933C9339D
:100B4000C99AC99B5004C92AC93BD5F0ECFBC833EC
:100B5000F4C8E4C9FA22700422600D18C6C333C673
:100B600008C633C6D5E0F41822251810AF08F518CA
:100B7000400C15198008F51840021519D2AF220053
:100B8000C0D0251810AF08F518500C05198008F5CD
:100B90001850020519D2AFD0D0222518F58210AF17
:100BA00008F518400C15198008F51840021519D2DF
:100BB000AF851983222518F582E43519F58322259E
:100BC00018F8E43519F9222518FAE43519FB22E45E
:100BD000732518C582C0E0E51934FFC583C0E0E580
:100BE00018C3958224F810AF088583198582188070
:100BF00008858319858218D2AFCEF0A3E520F0A333
:100C00007808E608F0A3DEFAEFF0A3E58124FAF80D
:100C1000E608F0A3E608F0A3E608F0A30808E60853
:100C2000F0A3E608F0A315811581D0E0FED0E0F82E
:100C3000158115811581E8C0E0EEC0E02285198399
:100C4000851882E0A3FEE0A3F5207808E0A3F6086B
:100C5000DFFAE0A3FFE0A3C0E0E0A3C0E0E0A3C0B0
:100C6000E0E0A3C0E0E0A3C0E010AF0885821885F3
:100C700083198008858218858319D2AFD083D082EA
:100C800002006C74048006740280027401C0E0F4F7
:100C900004120B9AD0E0120A8E2274028000CCC09B
:100CA000E0EDC0E0E518C39CCCAD1950011D10AFBC
:100CB000068C188D1980068C188D19D2AF120A9BDC
:100CC000D0E0FDD0E0FC2274F0120BD174FD120BC9
:100CD000697402120BB5E9F08A088B098C0A8D0B36
:100CE0007415120BB5E0FEA3E0FF85188285198309
:100CF000E4F0A3F08E828F83A3AA82AB8390027666
:100D0000780C120A4C7808790C12031E70118E822E
:100D10008F8374691211B2746EF0A37466801878B0
:100D200008790812031E60188E828F83746E121168
:100D3000B27461F0A3746EF0A30A0AAB830211517E
:100D400090027A780C120A4C7808790C12034A50F7
:100D500003020DF4900215780C120A4C7808790CF5
:100D600012031E6003020E487417120BB5E07003E5
:100D7000020E8A851882851983C082C0837413127B
:100D80000BB5121C06D083D08212118B502F851800
:100D900082851983C3E094FCA3E094FFA2D265D0BE
:100DA00033401A7402120BB5E4121CF6F8A3E0F9F2
:100DB0007413120BB5C3E098F0A3E099F07413120A
:100DC0000BB51211A87418120BB5E07003020E8750
:100DD0007417120BB5E4020E8990027E780C120A89
:100DE0004C7808790C1207A4851882851983E024B1
:100DF0000A121D14900282780C120A4C7808790CA1
:100E000012034A40D4900286780C120A4C78087972
:100E10000C12034A4003020D68900286780C120AF5
:100E20004C7808790C1207A4121D0B80D890027E12
:100E3000780C120A4C7808790C1203E58518828523
:100E40001983E024F61211AB90028A780C120A4C36
:100E50007808790C12039940D490027A780C120A1F
:100E60004C7808790C1203994003020D68900286B1
:100E7000780C120A4C7808790C1203E585188285E3
:100E800019831211A880D27401F07402120BB5E01C
:100E900060057A00020F17121197507F8E828F83A0
:100EA0007430F0EAFEEBFF7413120BB5E0FCA3E024
:100EB000FDEC4D70087418120BB5E0600B8E828F3C
:100EC00083742EF0A30EAF837A007B0080118E8294
:100ED0008F8374301211D37413120BB51211A8EA58
:100EE00024FF1AEB34FFFB85188285198312117FCA
:100EF000500C7413120BB5121C06E84970D08518FB
:100F00008285198374FFC39CF874FF9DF912118BBD
:100F100050030210697A017B00807B851882851955
:100F200083121C06C3E498FAE499FB806985080CD7
:100F300085090D850A0E850B0F780C120237AC0C53
:100F4000E50D3395E0F50EF50F780C1201BF78082A
:100F5000790C120565900286780C120A4C78087993
:100F60000C1203E5EC1211CDEAF8EBF9E824010AC2
:100F7000E439FBE849701F7413120BB5121C06E824
:100F80004970087418120BB5E0600B8E828F837461
:100F90002EF0A30EAF837413120BB512117F508D78
:100FA00090028E780C120A4C7808790C12034A4091
:100FB000030210697C01EE24FFF8EF34FFF9741589
:100FC000120BB5E0F508A3E0F50988828983E06497
:100FD0002E6010E02CF0643A70077430F07C0180D1
:100FE000027C00E8FAE9FBEA24FF18EB34FFF9C3BE
:100FF000E5089AE5099B40D2ECA2E0506C7402121D
:101000000BB5E0603BEEF8EF800DEC88828983F051
:10101000E824FF18E934FFF9C3E50898E509995079
:101020001A12115BE0FC742E6C70DFE824FEF5826E
:10103000E934FFF583121168F980D5121D0B801E6B
:101040008E828F83A3AE82AF83EEF8EF80061211FB
:101050005B121168F9C3E50898E5099940F0741529
:10106000120BB5121C307431F07417120BB5E0700E
:1010700005801C1EAF83EE24FFF582EF34FFF5835D
:10108000E0F874306860EC742E6870031EAF8374EF
:1010900002120BB5E0700302114D1211CFA3A98308
:1010A0001211978E828F835014742DF00EE9FF85F4
:1010B0001882851983121C481211C08006742BF007
:1010C0000EE9FF7C007D00EE240AFE50010F0CECBF
:1010D00070010D121171120AF5EA1211CD1211717F
:1010E000120AF5851882851983E8F0A3E9121CF627
:1010F0004970DBC3EC9402ED121BC540D1ECFAED54
:10110000FBC3E49CF8E49DF9EE28F582EF39F58302
:10111000E0C0E0C3E49AF8E49BF9EE28F8EF39F96F
:10112000E82CF8E93DF9E824F5F582E934FFF58388
:10113000D0E0F0EC24FF1CED34FFFDC3EC9401ED96
:10114000121BC550BCEE24F6FEEF34FFFFEEFAEFA3
:10115000FB7403120B7F7F08020C3DE824FFFAE9C1
:1011600034FFFB8A828B8322E088828983F018EB2C
:1011700022851882851983121C8E7A0A7B0022C36D
:10118000E09AA3E09BA2D265D03322C3E098A3E00B
:1011900099A2D265D03322851882851983C3A3E032
:1011A0009400A2D265D03322E024FFF0A3E034FF04
:1011B000F022F0EAFEEBFF8E828F8322A3E0340060
:1011C000F9851882851983E8F0A3E9F02224308E8E
:1011D000828F83F0A3AE82AF832274F0120BD1749E
:1011E000AE120B69851882851983121CC4741712FC
:1011F0000BB5ECF0A3EDF0740F120BB5E4F0A38087
:101200001B7462120BB5121BF67417120BB5121C6D
:1012100030120BCF740F120BB5121BCDF0121C6ADB
:10122000F9851882851983E02401FAA3E03400FBD4
:10123000851882851983121CC47425696010E970B1
:10124000C0740F120BB5121BF67452021153121C0C
:101250006A64257019851882851983E024010812B3
:1012600011BC7462120BB5121BF67925809B740EAB
:10127000120BB5E4F0740D120BB5E4F0740C120B04
:10128000B5E4F07405120BB5E4F07420120BBF74D2
:1012900002120BB51211C7741E120BB57441F0A3E4
:1012A000740280197405120BB5E070077405120BF7
:1012B000B5EAF0851882851983E8F0A3E9121CF6D7
:1012C000121BBA121C5FFA24E060D924FD601724B7
:1012D000F860D924FE600624FD600F8011740C12A2
:1012E0000BB5E00480CC740D80F5740E80F1121CF7
:1012F0005F642A705C7464120BB5121C65FAA3E07B
:10130000FB8A828B83E0FCA3E0FD740A120BB5EC30
:10131000F0A3EDF0EA2402FA50010B7464120BB54D
:10132000121CBC740A120BB512119D501F740A12C4
:101330000BB5121BF6C3E49AFAE49BFB740A120B7A
:10134000B5121CC4740C120BB5E004F01211C1806C
:1013500043740A120BB5E4F0A3802D740A120BB586
:10136000121BF6EA75F00AA4FAA9F075F00AEBA4CC
:1013700029FBEA28F8E43BF9E824D0F8E934FFF93E
:10138000740A120BB5121D1B121D03F874D028C36A
:10139000940A40C7740C120BB5E06007740E120B70
:1013A000B5E4F0121C6A642E707985188285198361
:1013B000E0240108121C1AE8F0A3E9121D03642AB4
:1013C00070267464120BB5121C8388828983E0FE38
:1013D000A3E0FFE82402F85001097464120BB5126F
:1013E0001C52121D1BF0803F7E007F00121C777480
:1013F000D028C3940A5030EE75F00AA4FEA9F07507
:10140000F00AEFA429FFEE28F8E43FF9E824D0FE23
:10141000E934FFFF851882851983E02401F8121151
:10142000BC80C97EFF7FFF7A00851882851983E022
:101430002401F8121C1AE0FBA3E0F5838B82E02460
:10144000B4600824E4600624FC70057A011211C11E
:10145000121C77851882851983E02401FCA3E034EF
:1014600000FD851882851983ECF0A3EDF074041259
:101470000BB5E8F07003021A6124BB700302192A4D
:1014800024FE700302190C24EF700302165B24F58E
:101490007003021551147003021706147003021929
:1014A0002A14700302192814700302190C24FE7008
:1014B0000302170624FB602414700302163F147005
:1014C0000302165B24FD700302158824FE700302DC
:1014D000165B24FD700302164F021A6D7464120B22
:1014E000B5121CAA120BB5121CD2120BB5121C831A
:1014F000E8FCE9FD7406120BB5E02402F508A3E050
:101500003400F509EAA2E0740F502F120BB5121C3B
:10151000063395E0FA8C828D83E8FCE9FDEAFEEC67
:10152000F0A3EDF0A3EEF0A3F07464120BB5121C5F
:1015300030E508F0A3E50902121C120BB5121C06D7
:101540008C828D831211C77464120BB5121C5280E9
:10155000E07464120BB5121C7D121C72C0E0742082
:10156000120BB5D0E0F07464120BB5121C30121CD3
:1015700094120BB5121C521211C77421120BB5A88C
:1015800082A98374110216357464120BB5121CAA59
:10159000120BB5121CD2120BB5121CAA120BB5E01D
:1015A0002402FAA3E03400FB7464120BB5121CBCD5
:1015B0007402120BB51211C7E849700C7402120BB9
:1015C000B57452F0A37402F0121BC350047E107F56
:1015D000277408120BB5E4F0A380087408120BB549
:1015E000121BCDF07402120BB5121C06888289837F
:1015F000A3AA82AB837402120BB5121CC488828921
:1016000083E0600A7408120BB5121C0A40CD740204
:10161000120BB5121BE47411120BB51211C774082A
:10162000120BB5121C48F97411120BB5E028F8A37F
:10163000E039F97402120BB5E8F0A3E9021A8474D8
:101640000D120BB5E06008EE4F70047E017F007450
:101650001E120BB57461F0A37402F07464120BB522
:10166000121CAA120BB51211C77404120BB5E06458
:101670007070327406120BB5121CA0120BB5121C3E
:10168000DA120BB5121C94120BB5121C521211C7B0
:10169000741A120BB57410121CE4A3F07405120B2B
:1016A000B5E4021792EAA2E07406501B120BB512C1
:1016B0001C30120A767413120BB5120A82740612C9
:1016C0000BB5E024048012120BB5121CA0120BB54E
:1016D000121CDA120BB5E02402121C97120BB51281
:1016E0001C521211C77404120BB5E0646F700974B8
:1016F0001A120BB57408809FE064757093741A1207
:101700000BB5740A80917464120BB5121CAA120BEB
:10171000B51211C7EAA2E074065015120BB5121CDF
:10172000307808120A4C7406120BB5E02404801BB2
:10173000120BB5121C70F508A3E0F5093395E0F51E
:101740000AF50B7406120BB5E02402121C97120B5B
:10175000B5121CEB120BB57808120A5B90021578D3
:101760000812019940217405120BB5742DF0741301
:10177000120BB57808120A4C78081209FC7413127F
:101780000BB57808120A5B741A120BB5740A121C96
:10179000E4A3F07451120BB5A882A9837402120B52
:1017A000B51211C77411120BB5121CEE120BB51243
:1017B0000A76E8494A4B600A7419120BB57401F0B5
:1017C000800E7419120BB5E4F0EE4F700302187C12
:1017D0007402120BB5121C2A120BB5121CEE120B5E
:1017E000B5780C120A4C741A120BB57808120A4C10
:1017F000780C790812098A741E120BB5E02508F8D6
:10180000A3E035098882F583E0C0E07402120BB5CD
:10181000121C30D0E0F07413120BB5780C120A4C85
:10182000741A120BB57808120A4C780C7908120950
:101830008A7413120BB5780C120A5B7413120BB571
:10184000120A76E8494A4B7087121BC3502E740E59
:10185000120BB5E060267405120BB5E06004D2F0FF
:101860008002C2F0740A120BB5121BD6800E7402ED
:10187000120BB5121CCA120BB5121C417402120BCA
:10188000B5121BE47451120BB5C082C083740212EE
:101890000BB5121BF6D083D082E582C39AFAE5839A
:1018A0009BFBC3EA9EEB121C1340C3740D120BB5D5
:1018B000E07003021A857419120BB5E0A2E0400330
:1018C000021A857404120BB5E064786005E0645870
:1018D0007010E088828983F0E824FF18E934FFF96A
:1018E0008017E0646F6003021A857402120BB51250
:1018F0001C6564307003021A857402120BB5121C49
:10190000CA120BB5121C307430021A847408120B00
:10191000B57401F0A3E4F07404120BB5E024FEF0FA
:10192000EE4F700F7E018012E4F07408120BB5E4E4
:10193000F0A3F0121BC350047E067F007464120BE8
:10194000B5121CAA120BB5121CD2120BB5121C3008
:10195000780C120A4C7406120BB5E02404121C9782
:10196000120BB5121CEB120BB5780C120A5B90022D
:10197000157808120A4C780C7908120399502274D1
:1019800005120BB5742DF07413120BB57808120AFA
:101990004CE50BB2E7F50B7413120BB57808120A7D
:1019A0005B740A120BB57420120BBF8909E028F88A
:1019B000A3E03509F97402120BB51211C7740D12A8
:1019C0000BB5E0F5087808120C8B7409120BB5E022
:1019D000F5087808120C8B7404120BB5120C9A8E51
:1019E000088F097808120C87740A120BB5E0F97495
:1019F00019120BB5120A6A12017B7406120B7F745E
:101A000011120BB5121CC4740E120BB5E060767483
:101A100005120BB5E06004D2F08002C2F0740A1225
:101A20000BB5121BD67411120BB5C082C0837402A1
:101A3000120BB5121C06D083D082E0C398F8A3E045
:101A400099F9C3E89EE9121C13503A7402120BB5BF
:101A5000121C2A120BB5121CCA120BB5121C4180A3
:101A6000C4851882851983121BED1211C0740212ED
:101A70000BB57472F0A37402F07411120BB5747587
:101A8000F0A37402F07411120BB5C082C08374020B
:101A9000120BB5121C06D083D082E0C398FEA3E0DF
:101AA00099FF740A120BB5121C0A500A7408120B23
:101AB000B5E4F0A380307405120BB5E06004D2F0F9
:101AC0008002C2F0740A120BB5E0C39EFAA3E09F35
:101AD000FBA2F0E433F8EA98F8EB9400F9740812EA
:101AE0000BB5E8F0A3E9F0740C120BB5E0702B8095
:101AF000197462120BB5121BFC120BB5121C3012BA
:101B00000BCF740F120BB5121D117408120BB51206
:101B10001CB0120BB512119D50D77405120BB5E015
:101B200060517462120BB5121BF67405120BB5E00E
:101B3000F97417120BB5121C30120BCF802D746282
:101B4000120BB5121BF67402120BB5121C70F9744D
:101B500017120BB5121C30120BCF7402120BB5E02A
:101B6000121BBA7402120BB51211C7740F120BB507
:101B7000121D11EE24FF1EEF34FFFFC3121BC550D0
:101B8000BD740C120BB5E0700302121D7408120B29
:101B9000B5121CB0120BB512119D500302121D7428
:101BA00062120BB5121BFC120BB5121C30120BCFBC
:101BB000740F120BB5121D1180D22401F8A3E0346A
:101BC00000F922C3EF9400A2D265D03322E02401B1
:101BD000F0A3E0340022A2F0E433F8E098FEA3E0A2
:101BE0009400FF22121BE822121BEDF922E024FFD1
:101BF000F8A3E034FF22E0FAA3E0FB22E0FAA3E03E
:101C0000FB7920741722121C8E22C3E09EA3E012DF
:101C10001C13229FA2D265D03322121C1E22A3E0E5
:101C20003400F985188285198322121BE874022278
:101C3000121C3422121C3822E0F8A3E0F5838882BB
:101C400022121C347430F022121C8EC3E498F8E483
:101C50009922121C5622E0FAA3E0F5838A8222859B
:101C60001882851983121C56E022851882851983F3
:101C7000E0F8121C3AE022851882851983121C3480
:101C8000E0F822121C8722121C38121C8E22E0F867
:101C9000A3E0F922E02402F8A3E03400F9746422FE
:101CA000121C87E8FAE9FB741322121C87740622BF
:101CB000E024FFF0A3E034FFF0740822E0FCA3E08E
:101CC000F5838C82EAF0A3EBF022E8F0A3E9F0744C
:101CD0000222E8F0A3E9F0740622EAF0A3EB121C5A
:101CE000E4740622F0A3E4F0A3F022121C56E8F0FC
:101CF000A3E9F0741322121CFA22F08518828519C8
:101D000083E022121CFA121C39E022851882851900
:101D100083E02401F0A3E03400F022E8F0A3E9120C
:101D20001CFA2401F8121C1EE8F0A3E922C082C0AC
:101D30008312013F1201457980120151E979FE12A7
:101D40000151E912014B7A587B0212015DD083D018
:101D50008202006C74E8120BD1890C7508007509B9
:101D600000750A00750B00751000751100751200E2
:101D70007513001201457980120151E96003021EBA
:101D8000DBA90C120151E96003021EDB7A1E7B0005
:101D900012015D1201457981120151E9640160EC83
:101DA0007900120157E9FF7A1E7B0012015D79006C
:101DB000120157E9FE7901120157E912014BCE5485
:101DC000FCCEEFFA7B00EA75F000A4CAA8F075F02B
:101DD00001A428F875F000EBA428FBEEF87900EADE
:101DE00028F508EB39F509E5093395E0F50AF50B17
:101DF00078081201BF74F3650C6003021E82900222
:101E0000057810120A4C780879101203E59002093F
:101E10007810120A4C780879101207A490020D78F5
:101E200010120A4C7808791012058A850810850965
:101E300011850A12850B1385100885110985120A70
:101E400085130BC50BC2E7C50B9002117814120A5B
:101E50004C780879141203E57808120237AA08AB07
:101E6000099002157808120A4C7810790812034A72
:101E700050089002007400F080659002007401F038
:101E8000805D9002197810120A4C780879101203BC
:101E9000E59002097810120A4C780879101207A40C
:101EA00090021D7810120A4C7808791012058A8564
:101EB0000810850911850A12850B13C513C2E7C5E1
:101EC000139002117808120A4C781079081203E571
:101ED0007810120237AA10AB1180047A007B007FC1
:101EE00010020C3D800B000000000000000000000C
:101EF00000EAF8EBF9E824FFFAE934FFFBE849705F
:101F0000E502006CC082C08353F3BF43FD4053F32E
:101F10007F43FD80D2867A0A7B00120139D2877A0C
:101F20000A7B00120139D083D08202006CC082C0CB
:101F300083D286D2877A057B00120139C2867A0560
:101F40007B00120139C287D083D08202006CC0822C
:101F5000C083C286D2877A057B00120139D2867A85
:101F6000057B00120139D083D08202006C74F71215
:101F70000BD1E9FFC2877E008020C2867A057B00F4
:101F8000120139D2877A057B00120139C2877A059E
:101F90007B00120139EFC333FF0EEEC394085009E2
:101FA000EFA2E750D5D28680D37A027B00120139A6
:101FB000D286D2877A027B00120139A28650047938
:101FC00001800BC2877A327B0012013979007F01D0
:101FD000020C3D74F7120BD189087E00C287D286AD
:101FE0007F008016C3EE92E0FE7A0A7B0012013970
:101FF000C2877A147B001201390FEFC3940850187E
:10200000D2877A1E7B00120139EEC333FEA28650BE
:10201000D3D3EE92E0FE80D1AF08E508A2E092862D
:102020007A0A7B00120139D2877A327B0012013999
:10203000C2877A327B00120139EEF97F01020C3D32
:10204000EAF8EBF9E824FFFAE934FFFBE849600B12
:102050007800E8C394C850E80880F702006C74F078
:10206000120BD1E9FBEB60708B08750900740778DF
:1020700008120B56E4F50AF50BEBF87900E875F059
:1020800072A4C8AAF075F000A42AFA75F072E9A447
:102090002AF9880CE9F50D3395E0F50EF50F78086F
:1020A000790C120A26E5C654077808120A0D85082D
:1020B0000C85090D850A0E850B0F850C08850D0909
:1020C000850E0A850F0B9002017808120A39E50C7B
:1020D000450D450E450F70D67F08020C3D74F71272
:1020E0000BD1EAFEEBFF80077ADE7B03120127EEBD
:1020F000F8EFF9E824FFFEE934FFFFE84970E97FD3
:1021000001020C3D74F4120BD1EAFCEBFDECF8ED8E
:10211000F97AFA7B00120AFD880A890B850A08857C
:102120000B09ECF8EDF97AFA7B00120AFD8A0A8BAA
:102130000BAE0AAF0B800579FA12011BA808A9099A
:10214000E824FFF508E934FFF509E84970E9EEF9FC
:1021500012011B7F04020C3D74C0120B697E0075D6
:102160000800750900750A00750B001201151201AF
:102170006312012D7A007900120169802D7400FE2E
:10218000AA18AB1912017575084075090078081274
:102190000C877C007D007402120BC7120187740249
:1021A000120B7F7A017B00120121EE705479F31239
:1021B00001338A08EBF5093395E0F50AF50B780849
:1021C0001201BF900211780C120A4C7808790C1297
:1021D00007A47808120C837C217D027404120BC7BB
:1021E0001201937404120B7F90023D780C120A4C7A
:1021F0007808790C12034A5004C290803FD2908034
:102200003B79F51201338A08EBF5093395E0F50ABD
:10221000F50B78081201BF900211780C120A4C7865
:1022200008790C1207A47808120C837C2F7D0274A5
:1022300004120BC71201937404120B7FEE600302A9
:10224000217D740102217FC082C0838A828B831228
:1022500022D4E9F08A828B83E02401FCA3E03400DD
:10226000FD8A828B83ECF0A3EDF0D083D082020054
:102270006C74F6120BD174FC120B697402120BB55C
:10228000EAF0A3EBF0ECFAEDFB740E120BBF85182D
:1022900082851983E8F0A3E9F0A818A919880889AC
:1022A000097808120C877404120BBF880889097812
:1022B00008120C877C8D7D011201817404120B7F42
:1022C0007402120BB51222D4E4F07404120B7F7F57
:1022D00002020C3DE0F8A3E0F58388822243F4C0BB
:1022E00043F10253F5DF75F8C075FC0A75FA3BE956
:1022F0004A42FB02006C89F9A2EA50FCC2EA0200E1
:102300006C74F7120BD1EAFEEBFF80128E828F8382
:10231000E0F912016F8E828F83A3AE82AF838E822B
:102320008F83E070E77F01020C3DC082C083851877
:1023300082851983E0F8A3E0F9E84960128A828B6C
:1023400083ECF0A3E824FF18E934FFF94870F2D0D9
:1023500083D08202006C53C6BFE59EA2E640FA53CA
:10236000C6F802006C53F4FC43FE03D291D29002F3
:02237000006CFF
:0400000500000054A3
:00000001FF
